{
  "contractName": "EthPriceBetPool",
  "abi": [
    {
      "inputs": [
        {
          "internalType": "int256",
          "name": "ethFinalPrice",
          "type": "int256"
        },
        {
          "internalType": "uint256",
          "name": "executionTimestamp",
          "type": "uint256"
        },
        {
          "internalType": "contract EthPriceConsumer",
          "name": "ethPriceConsumer",
          "type": "address"
        }
      ],
      "stateMutability": "nonpayable",
      "type": "constructor"
    },
    {
      "inputs": [
        {
          "internalType": "address",
          "name": "user",
          "type": "address"
        }
      ],
      "name": "getBalanceOfBet",
      "outputs": [
        {
          "internalType": "uint256",
          "name": "",
          "type": "uint256"
        }
      ],
      "stateMutability": "view",
      "type": "function",
      "constant": true
    },
    {
      "inputs": [
        {
          "internalType": "address",
          "name": "user",
          "type": "address"
        }
      ],
      "name": "getBalanceOfGain",
      "outputs": [
        {
          "internalType": "uint256",
          "name": "",
          "type": "uint256"
        }
      ],
      "stateMutability": "view",
      "type": "function",
      "constant": true
    },
    {
      "inputs": [],
      "name": "getIsExecutedBet",
      "outputs": [
        {
          "internalType": "bool",
          "name": "",
          "type": "bool"
        }
      ],
      "stateMutability": "view",
      "type": "function",
      "constant": true
    },
    {
      "inputs": [
        {
          "internalType": "bool",
          "name": "choice",
          "type": "bool"
        }
      ],
      "name": "bet",
      "outputs": [],
      "stateMutability": "payable",
      "type": "function",
      "payable": true
    },
    {
      "inputs": [
        {
          "internalType": "address payable",
          "name": "to",
          "type": "address"
        }
      ],
      "name": "withdrawGains",
      "outputs": [],
      "stateMutability": "nonpayable",
      "type": "function"
    },
    {
      "inputs": [],
      "name": "execute",
      "outputs": [],
      "stateMutability": "nonpayable",
      "type": "function"
    }
  ],
  "bytecode": "0x60806040523480156200001157600080fd5b5060405162000d4d38038062000d4d83398181016040528101906200003791906200019e565b6000600260006101000a81548160ff0219169083151502179055508260038190555080600560006101000a81548173ffffffffffffffffffffffffffffffffffffffff021916908373ffffffffffffffffffffffffffffffffffffffff16021790555081600481905550505050620001fa565b600080fd5b6000819050919050565b620000c481620000af565b8114620000d057600080fd5b50565b600081519050620000e481620000b9565b92915050565b6000819050919050565b620000ff81620000ea565b81146200010b57600080fd5b50565b6000815190506200011f81620000f4565b92915050565b600073ffffffffffffffffffffffffffffffffffffffff82169050919050565b6000620001528262000125565b9050919050565b6000620001668262000145565b9050919050565b620001788162000159565b81146200018457600080fd5b50565b60008151905062000198816200016d565b92915050565b600080600060608486031215620001ba57620001b9620000aa565b5b6000620001ca86828701620000d3565b9350506020620001dd868287016200010e565b9250506040620001f08682870162000187565b9150509250925092565b610b43806200020a6000396000f3fe6080604052600436106100555760003560e01c8063523afb0d1461005a5780636146195414610076578063619de4651461008d5780638d717020146100ca578063ca8c14b0146100f5578063db26fbb41461011e575b600080fd5b610074600480360381019061006f9190610759565b61015b565b005b34801561008257600080fd5b5061008b6102e0565b005b34801561009957600080fd5b506100b460048036038101906100af91906107e4565b61053a565b6040516100c1919061082a565b60405180910390f35b3480156100d657600080fd5b506100df6105c5565b6040516100ec9190610854565b60405180910390f35b34801561010157600080fd5b5061011c600480360381019061011791906108ad565b6105dc565b005b34801561012a57600080fd5b50610145600480360381019061014091906107e4565b610691565b604051610152919061082a565b60405180910390f35b6000600160003373ffffffffffffffffffffffffffffffffffffffff1673ffffffffffffffffffffffffffffffffffffffff16815260200190815260200160002060010154146101e0576040517f08c379a00000000000000000000000000000000000000000000000000000000081526004016101d790610937565b60405180910390fd5b6000604051806060016040528083151581526020013481526020016000815250905080600160003373ffffffffffffffffffffffffffffffffffffffff1673ffffffffffffffffffffffffffffffffffffffff16815260200190815260200160002060008201518160000160006101000a81548160ff02191690831515021790555060208201518160010155604082015181600201559050506000339080600181540180825580915050600190039060005260206000200160009091909190916101000a81548173ffffffffffffffffffffffffffffffffffffffff021916908373ffffffffffffffffffffffffffffffffffffffff1602179055505050565b6001600080549050116102f257600080fd5b60045442101561030157600080fd5b600260009054906101000a900460ff161561031b57600080fd5b60006104b0905060008060005b6000805490508110156104175760006001600080848154811061034e5761034d610957565b5b9060005260206000200160009054906101000a900473ffffffffffffffffffffffffffffffffffffffff1673ffffffffffffffffffffffffffffffffffffffff1673ffffffffffffffffffffffffffffffffffffffff1681526020019081526020016000209050600354851280156103d457508060000160009054906101000a900460ff165b156103f0578060010154836103e991906109b5565b9250610403565b80600101548461040091906109b5565b93505b50808061040f90610a0b565b915050610328565b5060005b6000805490508110156105195760006001600080848154811061044157610440610957565b5b9060005260206000200160009054906101000a900473ffffffffffffffffffffffffffffffffffffffff1673ffffffffffffffffffffffffffffffffffffffff1673ffffffffffffffffffffffffffffffffffffffff1681526020019081526020016000209050600354851280156104c757508060000160009054906101000a900460ff165b156105055760008160010154846104de9190610a82565b856104e99190610ab3565b90508082600101546104fb91906109b5565b8260020181905550505b50808061051190610a0b565b91505061041b565b506001600260006101000a81548160ff021916908315150217905550505050565b600080600160008473ffffffffffffffffffffffffffffffffffffffff1673ffffffffffffffffffffffffffffffffffffffff1681526020019081526020016000206040518060600160405290816000820160009054906101000a900460ff161515151581526020016001820154815260200160028201548152505090508060200151915050919050565b6000600260009054906101000a900460ff16905090565b600260009054906101000a900460ff166105f557600080fd5b6000600160008373ffffffffffffffffffffffffffffffffffffffff1673ffffffffffffffffffffffffffffffffffffffff16815260200190815260200160002090508173ffffffffffffffffffffffffffffffffffffffff166108fc82600201549081150290604051600060405180830381858888f19350505050158015610682573d6000803e3d6000fd5b50600081600201819055505050565b600080600160008473ffffffffffffffffffffffffffffffffffffffff1673ffffffffffffffffffffffffffffffffffffffff1681526020019081526020016000206040518060600160405290816000820160009054906101000a900460ff161515151581526020016001820154815260200160028201548152505090508060400151915050919050565b600080fd5b60008115159050919050565b61073681610721565b811461074157600080fd5b50565b6000813590506107538161072d565b92915050565b60006020828403121561076f5761076e61071c565b5b600061077d84828501610744565b91505092915050565b600073ffffffffffffffffffffffffffffffffffffffff82169050919050565b60006107b182610786565b9050919050565b6107c1816107a6565b81146107cc57600080fd5b50565b6000813590506107de816107b8565b92915050565b6000602082840312156107fa576107f961071c565b5b6000610808848285016107cf565b91505092915050565b6000819050919050565b61082481610811565b82525050565b600060208201905061083f600083018461081b565b92915050565b61084e81610721565b82525050565b60006020820190506108696000830184610845565b92915050565b600061087a82610786565b9050919050565b61088a8161086f565b811461089557600080fd5b50565b6000813590506108a781610881565b92915050565b6000602082840312156108c3576108c261071c565b5b60006108d184828501610898565b91505092915050565b600082825260208201905092915050565b7f596f75206861766520616c726561647920626574000000000000000000000000600082015250565b60006109216014836108da565b915061092c826108eb565b602082019050919050565b6000602082019050818103600083015261095081610914565b9050919050565b7f4e487b7100000000000000000000000000000000000000000000000000000000600052603260045260246000fd5b7f4e487b7100000000000000000000000000000000000000000000000000000000600052601160045260246000fd5b60006109c082610811565b91506109cb83610811565b9250827fffffffffffffffffffffffffffffffffffffffffffffffffffffffffffffffff03821115610a00576109ff610986565b5b828201905092915050565b6000610a1682610811565b91507fffffffffffffffffffffffffffffffffffffffffffffffffffffffffffffffff8203610a4857610a47610986565b5b600182019050919050565b7f4e487b7100000000000000000000000000000000000000000000000000000000600052601260045260246000fd5b6000610a8d82610811565b9150610a9883610811565b925082610aa857610aa7610a53565b5b828204905092915050565b6000610abe82610811565b9150610ac983610811565b9250817fffffffffffffffffffffffffffffffffffffffffffffffffffffffffffffffff0483118215151615610b0257610b01610986565b5b82820290509291505056fea264697066735822122084b404a4d6dfcb86cee294675542852f8a807dd8cc0a751096dca94d329dfde564736f6c634300080e0033",
  "immutableReferences": {},
  "source": "// SPDX-License-Identifier: MIT\r\npragma solidity ^0.8.7;\r\n\r\nimport \"./EthPriceConsumer.sol\";\r\n\r\ncontract EthPriceBetPool {\r\n    struct UserBet {\r\n        bool choice;\r\n        uint256 balanceOfBet;\r\n        uint256 balanceOfGains;\r\n    }\r\n\r\n    address[] _addressIndexes;\r\n    mapping(address => UserBet) _usersBets;\r\n\r\n    bool _isExecutedBet;\r\n    int256 _ethFinalPrice;\r\n    uint256 _executionTimestamp;\r\n    EthPriceConsumer _ethPriceConsumer;\r\n\r\n    constructor(\r\n        int256 ethFinalPrice,\r\n        uint256 executionTimestamp,\r\n        EthPriceConsumer ethPriceConsumer\r\n    ) {\r\n        _isExecutedBet = false;\r\n        _ethFinalPrice = ethFinalPrice;\r\n        _ethPriceConsumer = ethPriceConsumer;\r\n        _executionTimestamp = executionTimestamp;\r\n    }\r\n\r\n    function getBalanceOfBet(address user) external view returns (uint256) {\r\n        UserBet memory userBet = _usersBets[user];\r\n\r\n        return userBet.balanceOfBet;\r\n    }\r\n\r\n    function getBalanceOfGain(address user) external view returns (uint256) {\r\n        UserBet memory userBet = _usersBets[user];\r\n\r\n        return userBet.balanceOfGains;\r\n    }\r\n\r\n    function getIsExecutedBet() external view returns (bool) {\r\n        return _isExecutedBet;\r\n    }\r\n\r\n    function bet(bool choice) external payable {\r\n        //require(block.timestamp < _executionTimestamp); Remove for the demo\r\n        require(\r\n            _usersBets[msg.sender].balanceOfBet == 0,\r\n            \"You have already bet\"\r\n        );\r\n\r\n        UserBet memory userBets = UserBet(choice, msg.value, 0);\r\n        _usersBets[msg.sender] = userBets;\r\n\r\n        _addressIndexes.push(msg.sender);\r\n    }\r\n\r\n    function withdrawGains(address payable to) external {\r\n        require(_isExecutedBet);\r\n\r\n        UserBet storage userBets = _usersBets[to];\r\n\r\n        to.transfer(userBets.balanceOfGains);\r\n        userBets.balanceOfGains = 0;\r\n    }\r\n\r\n    function execute() external {\r\n        require(_addressIndexes.length > 1);\r\n        require(block.timestamp >= _executionTimestamp);\r\n        require(!_isExecutedBet);\r\n\r\n        //int256 ethFinalPrice = _ethPriceConsumer.getLatestPrice();\r\n        int256 ethFinalPrice = 1200;\r\n\r\n        uint256 losersBetting = 0;\r\n        uint256 winnersBetting = 0;\r\n\r\n        for (uint256 index = 0; index < _addressIndexes.length; index++) {\r\n            UserBet storage userBets = _usersBets[_addressIndexes[index]];\r\n\r\n            if (ethFinalPrice < _ethFinalPrice && userBets.choice) {\r\n                winnersBetting += userBets.balanceOfBet;\r\n            } else {\r\n                losersBetting += userBets.balanceOfBet;\r\n            }\r\n        }\r\n\r\n        for (uint256 index = 0; index < _addressIndexes.length; index++) {\r\n            UserBet storage userBets = _usersBets[_addressIndexes[index]];\r\n\r\n            if (ethFinalPrice < _ethFinalPrice && userBets.choice) {\r\n                uint256 gains = losersBetting *\r\n                    (winnersBetting / userBets.balanceOfBet);\r\n\r\n                userBets.balanceOfGains = userBets.balanceOfBet + gains;\r\n            }\r\n        }\r\n\r\n        _isExecutedBet = true;\r\n    }\r\n}\r\n",
  "sourcePath": "C:\\Lab\\Solidity\\poc-bet-smart-contracts\\contracts\\EthPriceBetPool.sol",
  "compiler": {
    "name": "solc",
    "version": "0.8.14+commit.80d49f37.Emscripten.clang"
  },
  "schemaVersion": "3.4.7",
  "updatedAt": "2022-08-31T17:17:52.195Z",
  "networkType": "ethereum",
  "devdoc": {
    "kind": "dev",
    "methods": {},
    "version": 1
  },
  "userdoc": {
    "kind": "user",
    "methods": {},
    "version": 1
  }
}